{
  "_format": "hh-sol-artifact-1",
  "contractName": "MyNFT",
  "sourceName": "contracts/MyNFT.sol",
  "abi": [
    {
      "inputs": [],
      "stateMutability": "nonpayable",
      "type": "constructor"
    },
    {
      "anonymous": false,
      "inputs": [
        {
          "indexed": true,
          "internalType": "address",
          "name": "owner",
          "type": "address"
        },
        {
          "indexed": true,
          "internalType": "address",
          "name": "approved",
          "type": "address"
        },
        {
          "indexed": true,
          "internalType": "uint256",
          "name": "tokenId",
          "type": "uint256"
        }
      ],
      "name": "Approval",
      "type": "event"
    },
    {
      "anonymous": false,
      "inputs": [
        {
          "indexed": true,
          "internalType": "address",
          "name": "owner",
          "type": "address"
        },
        {
          "indexed": true,
          "internalType": "address",
          "name": "operator",
          "type": "address"
        },
        {
          "indexed": false,
          "internalType": "bool",
          "name": "approved",
          "type": "bool"
        }
      ],
      "name": "ApprovalForAll",
      "type": "event"
    },
    {
      "anonymous": false,
      "inputs": [
        {
          "indexed": true,
          "internalType": "address",
          "name": "previousOwner",
          "type": "address"
        },
        {
          "indexed": true,
          "internalType": "address",
          "name": "newOwner",
          "type": "address"
        }
      ],
      "name": "OwnershipTransferred",
      "type": "event"
    },
    {
      "anonymous": false,
      "inputs": [
        {
          "indexed": true,
          "internalType": "address",
          "name": "from",
          "type": "address"
        },
        {
          "indexed": true,
          "internalType": "address",
          "name": "to",
          "type": "address"
        },
        {
          "indexed": true,
          "internalType": "uint256",
          "name": "tokenId",
          "type": "uint256"
        }
      ],
      "name": "Transfer",
      "type": "event"
    },
    {
      "inputs": [
        {
          "internalType": "address",
          "name": "to",
          "type": "address"
        },
        {
          "internalType": "uint256",
          "name": "tokenId",
          "type": "uint256"
        }
      ],
      "name": "approve",
      "outputs": [],
      "stateMutability": "nonpayable",
      "type": "function"
    },
    {
      "inputs": [
        {
          "internalType": "address",
          "name": "owner",
          "type": "address"
        }
      ],
      "name": "balanceOf",
      "outputs": [
        {
          "internalType": "uint256",
          "name": "",
          "type": "uint256"
        }
      ],
      "stateMutability": "view",
      "type": "function"
    },
    {
      "inputs": [
        {
          "internalType": "uint256",
          "name": "tokenId",
          "type": "uint256"
        }
      ],
      "name": "getApproved",
      "outputs": [
        {
          "internalType": "address",
          "name": "",
          "type": "address"
        }
      ],
      "stateMutability": "view",
      "type": "function"
    },
    {
      "inputs": [
        {
          "internalType": "uint256",
          "name": "tokenId",
          "type": "uint256"
        }
      ],
      "name": "getChildren",
      "outputs": [
        {
          "internalType": "uint256[]",
          "name": "",
          "type": "uint256[]"
        }
      ],
      "stateMutability": "view",
      "type": "function"
    },
    {
      "inputs": [
        {
          "internalType": "uint256",
          "name": "tokenId",
          "type": "uint256"
        }
      ],
      "name": "getCrestLore",
      "outputs": [
        {
          "internalType": "enum MyNFT.CrestLore[]",
          "name": "",
          "type": "uint8[]"
        }
      ],
      "stateMutability": "view",
      "type": "function"
    },
    {
      "inputs": [
        {
          "internalType": "uint256",
          "name": "tokenId",
          "type": "uint256"
        }
      ],
      "name": "getParent",
      "outputs": [
        {
          "internalType": "uint256",
          "name": "",
          "type": "uint256"
        }
      ],
      "stateMutability": "view",
      "type": "function"
    },
    {
      "inputs": [
        {
          "internalType": "address",
          "name": "owner",
          "type": "address"
        },
        {
          "internalType": "address",
          "name": "operator",
          "type": "address"
        }
      ],
      "name": "isApprovedForAll",
      "outputs": [
        {
          "internalType": "bool",
          "name": "",
          "type": "bool"
        }
      ],
      "stateMutability": "view",
      "type": "function"
    },
    {
      "inputs": [
        {
          "internalType": "uint8",
          "name": "amount",
          "type": "uint8"
        }
      ],
      "name": "mintNFT",
      "outputs": [],
      "stateMutability": "nonpayable",
      "type": "function"
    },
    {
      "inputs": [],
      "name": "name",
      "outputs": [
        {
          "internalType": "string",
          "name": "",
          "type": "string"
        }
      ],
      "stateMutability": "view",
      "type": "function"
    },
    {
      "inputs": [],
      "name": "owner",
      "outputs": [
        {
          "internalType": "address",
          "name": "",
          "type": "address"
        }
      ],
      "stateMutability": "view",
      "type": "function"
    },
    {
      "inputs": [
        {
          "internalType": "uint256",
          "name": "tokenId",
          "type": "uint256"
        }
      ],
      "name": "ownerOf",
      "outputs": [
        {
          "internalType": "address",
          "name": "",
          "type": "address"
        }
      ],
      "stateMutability": "view",
      "type": "function"
    },
    {
      "inputs": [],
      "name": "renounceOwnership",
      "outputs": [],
      "stateMutability": "nonpayable",
      "type": "function"
    },
    {
      "inputs": [
        {
          "internalType": "address",
          "name": "from",
          "type": "address"
        },
        {
          "internalType": "address",
          "name": "to",
          "type": "address"
        },
        {
          "internalType": "uint256",
          "name": "tokenId",
          "type": "uint256"
        }
      ],
      "name": "safeTransferFrom",
      "outputs": [],
      "stateMutability": "nonpayable",
      "type": "function"
    },
    {
      "inputs": [
        {
          "internalType": "address",
          "name": "from",
          "type": "address"
        },
        {
          "internalType": "address",
          "name": "to",
          "type": "address"
        },
        {
          "internalType": "uint256",
          "name": "tokenId",
          "type": "uint256"
        },
        {
          "internalType": "bytes",
          "name": "_data",
          "type": "bytes"
        }
      ],
      "name": "safeTransferFrom",
      "outputs": [],
      "stateMutability": "nonpayable",
      "type": "function"
    },
    {
      "inputs": [
        {
          "internalType": "address",
          "name": "operator",
          "type": "address"
        },
        {
          "internalType": "bool",
          "name": "approved",
          "type": "bool"
        }
      ],
      "name": "setApprovalForAll",
      "outputs": [],
      "stateMutability": "nonpayable",
      "type": "function"
    },
    {
      "inputs": [
        {
          "internalType": "string",
          "name": "URI",
          "type": "string"
        }
      ],
      "name": "setBaseURI",
      "outputs": [],
      "stateMutability": "nonpayable",
      "type": "function"
    },
    {
      "inputs": [
        {
          "internalType": "bytes4",
          "name": "interfaceId",
          "type": "bytes4"
        }
      ],
      "name": "supportsInterface",
      "outputs": [
        {
          "internalType": "bool",
          "name": "",
          "type": "bool"
        }
      ],
      "stateMutability": "view",
      "type": "function"
    },
    {
      "inputs": [],
      "name": "symbol",
      "outputs": [
        {
          "internalType": "string",
          "name": "",
          "type": "string"
        }
      ],
      "stateMutability": "view",
      "type": "function"
    },
    {
      "inputs": [
        {
          "internalType": "uint256",
          "name": "index",
          "type": "uint256"
        }
      ],
      "name": "tokenByIndex",
      "outputs": [
        {
          "internalType": "uint256",
          "name": "",
          "type": "uint256"
        }
      ],
      "stateMutability": "view",
      "type": "function"
    },
    {
      "inputs": [
        {
          "internalType": "address",
          "name": "owner",
          "type": "address"
        },
        {
          "internalType": "uint256",
          "name": "index",
          "type": "uint256"
        }
      ],
      "name": "tokenOfOwnerByIndex",
      "outputs": [
        {
          "internalType": "uint256",
          "name": "",
          "type": "uint256"
        }
      ],
      "stateMutability": "view",
      "type": "function"
    },
    {
      "inputs": [
        {
          "internalType": "uint256",
          "name": "tokenId",
          "type": "uint256"
        }
      ],
      "name": "tokenURI",
      "outputs": [
        {
          "internalType": "string",
          "name": "",
          "type": "string"
        }
      ],
      "stateMutability": "view",
      "type": "function"
    },
    {
      "inputs": [],
      "name": "totalSupply",
      "outputs": [
        {
          "internalType": "uint256",
          "name": "",
          "type": "uint256"
        }
      ],
      "stateMutability": "view",
      "type": "function"
    },
    {
      "inputs": [
        {
          "internalType": "address",
          "name": "from",
          "type": "address"
        },
        {
          "internalType": "address",
          "name": "to",
          "type": "address"
        },
        {
          "internalType": "uint256",
          "name": "tokenId",
          "type": "uint256"
        }
      ],
      "name": "transferFrom",
      "outputs": [],
      "stateMutability": "nonpayable",
      "type": "function"
    },
    {
      "inputs": [
        {
          "internalType": "address",
          "name": "newOwner",
          "type": "address"
        }
      ],
      "name": "transferOwnership",
      "outputs": [],
      "stateMutability": "nonpayable",
      "type": "function"
    }
  ],
  "bytecode": "0x60806040526007600b556002600c60006101000a81548160ff021916908360ff1602179055506000601160006101000a81548160ff021916908360ff1602179055506040518060e00160405280600861ffff168152602001602061ffff168152602001604b61ffff16815260200160b461ffff1681526020016101a961ffff1681526020016103d461ffff1681526020016108fc61ffff168152506012906007620000ac929190620003fa565b506040518060e00160405280600861ffff168152602001602861ffff168152602001607361ffff16815260200161012761ffff1681526020016102d061ffff1681526020016106a461ffff168152602001610fa061ffff16815250601990600762000119929190620003fa565b503480156200012757600080fd5b506040518060400160405280600581526020017f4d794e46540000000000000000000000000000000000000000000000000000008152506040518060400160405280600781526020017f55524954455354000000000000000000000000000000000000000000000000008152508160009080519060200190620001ac92919062000445565b508060019080519060200190620001c592919062000445565b505050620001e8620001dc6200032c60201b60201c565b6200033460201b60201c565b6007600f60006001600b811115620002055762000204620004f5565b5b600b8111156200021a5762000219620004f5565b5b815260200190815260200160002060006101000a81548160ff0219169083600b8111156200024d576200024c620004f5565b5b02179055506008600f60006007600b8111156200026f576200026e620004f5565b5b600b811115620002845762000283620004f5565b5b815260200190815260200160002060006101000a81548160ff0219169083600b811115620002b757620002b6620004f5565b5b02179055506009600f60006002600b811115620002d957620002d8620004f5565b5b600b811115620002ee57620002ed620004f5565b5b815260200190815260200160002060006101000a81548160ff0219169083600b811115620003215762000320620004f5565b5b021790555062000589565b600033905090565b6000600a60009054906101000a900473ffffffffffffffffffffffffffffffffffffffff16905081600a60006101000a81548173ffffffffffffffffffffffffffffffffffffffff021916908373ffffffffffffffffffffffffffffffffffffffff1602179055508173ffffffffffffffffffffffffffffffffffffffff168173ffffffffffffffffffffffffffffffffffffffff167f8be0079c531659141344cd1fd0a4f28419497f9722a3daafe3b4186f6b6457e060405160405180910390a35050565b826007810192821562000432579160200282015b8281111562000431578251829061ffff169055916020019190600101906200040e565b5b509050620004419190620004d6565b5090565b828054620004539062000553565b90600052602060002090601f016020900481019282620004775760008555620004c3565b82601f106200049257805160ff1916838001178555620004c3565b82800160010185558215620004c3579182015b82811115620004c2578251825591602001919060010190620004a5565b5b509050620004d29190620004d6565b5090565b5b80821115620004f1576000816000905550600101620004d7565b5090565b7f4e487b7100000000000000000000000000000000000000000000000000000000600052602160045260246000fd5b7f4e487b7100000000000000000000000000000000000000000000000000000000600052602260045260246000fd5b600060028204905060018216806200056c57607f821691505b6020821081141562000583576200058262000524565b5b50919050565b6143e880620005996000396000f3fe608060405234801561001057600080fd5b50600436106101585760003560e01c806355f804b3116100c3578063a22cb4651161007c578063a22cb465146103ff578063b88d4fde1461041b578063c87b56dd14610437578063e985e9c514610467578063f2fde38b14610497578063fa77983e146104b357610158565b806355f804b31461033d5780636352211e1461035957806370a0823114610389578063715018a6146103b95780638da5cb5b146103c357806395d89b41146103e157610158565b80632f745c59116101155780632f745c5914610231578063414533de1461026157806342842e0e1461029157806349ae8dc3146102ad5780634af3d735146102dd5780634f6ccce71461030d57610158565b806301ffc9a71461015d57806306fdde031461018d578063081812fc146101ab578063095ea7b3146101db57806318160ddd146101f757806323b872dd14610215575b600080fd5b61017760048036038101906101729190612ab7565b6104cf565b6040516101849190612aff565b60405180910390f35b610195610549565b6040516101a29190612bb3565b60405180910390f35b6101c560048036038101906101c09190612c0b565b6105db565b6040516101d29190612c79565b60405180910390f35b6101f560048036038101906101f09190612cc0565b610660565b005b6101ff610778565b60405161020c9190612d0f565b60405180910390f35b61022f600480360381019061022a9190612d2a565b610785565b005b61024b60048036038101906102469190612cc0565b6107e5565b6040516102589190612d0f565b60405180910390f35b61027b60048036038101906102769190612c0b565b61088a565b6040516102889190612d0f565b60405180910390f35b6102ab60048036038101906102a69190612d2a565b6108f2565b005b6102c760048036038101906102c29190612c0b565b610912565b6040516102d49190612e3b565b60405180910390f35b6102f760048036038101906102f29190612c0b565b6109c8565b6040516103049190612f83565b60405180910390f35b61032760048036038101906103229190612c0b565b610ab3565b6040516103349190612d0f565b60405180910390f35b6103576004803603810190610352919061300a565b610b24565b005b610373600480360381019061036e9190612c0b565b610bb6565b6040516103809190612c79565b60405180910390f35b6103a3600480360381019061039e9190613057565b610c68565b6040516103b09190612d0f565b60405180910390f35b6103c1610d20565b005b6103cb610da8565b6040516103d89190612c79565b60405180910390f35b6103e9610dd2565b6040516103f69190612bb3565b60405180910390f35b610419600480360381019061041491906130b0565b610e64565b005b61043560048036038101906104309190613220565b610e7a565b005b610451600480360381019061044c9190612c0b565b610edc565b60405161045e9190612bb3565b60405180910390f35b610481600480360381019061047c91906132a3565b610f84565b60405161048e9190612aff565b60405180910390f35b6104b160048036038101906104ac9190613057565b611018565b005b6104cd60048036038101906104c8919061331c565b611110565b005b60007f780e9d63000000000000000000000000000000000000000000000000000000007bffffffffffffffffffffffffffffffffffffffffffffffffffffffff1916827bffffffffffffffffffffffffffffffffffffffffffffffffffffffff1916148061054257506105418261146d565b5b9050919050565b60606000805461055890613378565b80601f016020809104026020016040519081016040528092919081815260200182805461058490613378565b80156105d15780601f106105a6576101008083540402835291602001916105d1565b820191906000526020600020905b8154815290600101906020018083116105b457829003601f168201915b5050505050905090565b60006105e68261154f565b610625576040517f08c379a000000000000000000000000000000000000000000000000000000000815260040161061c9061341c565b60405180910390fd5b6004600083815260200190815260200160002060009054906101000a900473ffffffffffffffffffffffffffffffffffffffff169050919050565b600061066b82610bb6565b90508073ffffffffffffffffffffffffffffffffffffffff168373ffffffffffffffffffffffffffffffffffffffff1614156106dc576040517f08c379a00000000000000000000000000000000000000000000000000000000081526004016106d3906134ae565b60405180910390fd5b8073ffffffffffffffffffffffffffffffffffffffff166106fb6115bb565b73ffffffffffffffffffffffffffffffffffffffff16148061072a5750610729816107246115bb565b610f84565b5b610769576040517f08c379a000000000000000000000000000000000000000000000000000000000815260040161076090613540565b60405180910390fd5b61077383836115c3565b505050565b6000600880549050905090565b6107966107906115bb565b8261167c565b6107d5576040517f08c379a00000000000000000000000000000000000000000000000000000000081526004016107cc906135d2565b60405180910390fd5b6107e083838361175a565b505050565b60006107f083610c68565b8210610831576040517f08c379a000000000000000000000000000000000000000000000000000000000815260040161082890613664565b60405180910390fd5b600660008473ffffffffffffffffffffffffffffffffffffffff1673ffffffffffffffffffffffffffffffffffffffff168152602001908152602001600020600083815260200190815260200160002054905092915050565b60006108958261154f565b6108d4576040517f08c379a00000000000000000000000000000000000000000000000000000000081526004016108cb906136f6565b60405180910390fd5b600e6000838152602001908152602001600020600001549050919050565b61090d83838360405180602001604052806000815250610e7a565b505050565b606061091d8261154f565b61095c576040517f08c379a000000000000000000000000000000000000000000000000000000000815260040161095390613788565b60405180910390fd5b600e60008381526020019081526020016000206001018054806020026020016040519081016040528092919081815260200182805480156109bc57602002820191906000526020600020905b8154815260200190600101908083116109a8575b50505050509050919050565b60606109d38261154f565b610a12576040517f08c379a0000000000000000000000000000000000000000000000000000000008152600401610a099061381a565b60405180910390fd5b600e6000838152602001908152602001600020600201805480602002602001604051908101604052809291908181526020018280548015610aa757602002820191906000526020600020906000905b82829054906101000a900460ff16600b811115610a8157610a80612e89565b5b81526020019060010190602082600001049283019260010382029150808411610a615790505b50505050509050919050565b6000610abd610778565b8210610afe576040517f08c379a0000000000000000000000000000000000000000000000000000000008152600401610af5906138ac565b60405180910390fd5b60088281548110610b1257610b116138cc565b5b90600052602060002001549050919050565b610b2c6115bb565b73ffffffffffffffffffffffffffffffffffffffff16610b4a610da8565b73ffffffffffffffffffffffffffffffffffffffff1614610ba0576040517f08c379a0000000000000000000000000000000000000000000000000000000008152600401610b9790613947565b60405180910390fd5b818160109190610bb19291906128a5565b505050565b6000806002600084815260200190815260200160002060009054906101000a900473ffffffffffffffffffffffffffffffffffffffff169050600073ffffffffffffffffffffffffffffffffffffffff168173ffffffffffffffffffffffffffffffffffffffff161415610c5f576040517f08c379a0000000000000000000000000000000000000000000000000000000008152600401610c56906139d9565b60405180910390fd5b80915050919050565b60008073ffffffffffffffffffffffffffffffffffffffff168273ffffffffffffffffffffffffffffffffffffffff161415610cd9576040517f08c379a0000000000000000000000000000000000000000000000000000000008152600401610cd090613a6b565b60405180910390fd5b600360008373ffffffffffffffffffffffffffffffffffffffff1673ffffffffffffffffffffffffffffffffffffffff168152602001908152602001600020549050919050565b610d286115bb565b73ffffffffffffffffffffffffffffffffffffffff16610d46610da8565b73ffffffffffffffffffffffffffffffffffffffff1614610d9c576040517f08c379a0000000000000000000000000000000000000000000000000000000008152600401610d9390613947565b60405180910390fd5b610da660006119b6565b565b6000600a60009054906101000a900473ffffffffffffffffffffffffffffffffffffffff16905090565b606060018054610de190613378565b80601f0160208091040260200160405190810160405280929190818152602001828054610e0d90613378565b8015610e5a5780601f10610e2f57610100808354040283529160200191610e5a565b820191906000526020600020905b815481529060010190602001808311610e3d57829003601f168201915b5050505050905090565b610e76610e6f6115bb565b8383611a7c565b5050565b610e8b610e856115bb565b8361167c565b610eca576040517f08c379a0000000000000000000000000000000000000000000000000000000008152600401610ec1906135d2565b60405180910390fd5b610ed684848484611be9565b50505050565b6060610ee78261154f565b610f26576040517f08c379a0000000000000000000000000000000000000000000000000000000008152600401610f1d90613afd565b60405180910390fd5b600060108054610f3590613378565b905011610f515760405180602001604052806000815250610f7d565b6010610f5c83611c45565b604051602001610f6d929190613bed565b6040516020818303038152906040525b9050919050565b6000600560008473ffffffffffffffffffffffffffffffffffffffff1673ffffffffffffffffffffffffffffffffffffffff16815260200190815260200160002060008373ffffffffffffffffffffffffffffffffffffffff1673ffffffffffffffffffffffffffffffffffffffff16815260200190815260200160002060009054906101000a900460ff16905092915050565b6110206115bb565b73ffffffffffffffffffffffffffffffffffffffff1661103e610da8565b73ffffffffffffffffffffffffffffffffffffffff1614611094576040517f08c379a000000000000000000000000000000000000000000000000000000000815260040161108b90613947565b60405180910390fd5b600073ffffffffffffffffffffffffffffffffffffffff168173ffffffffffffffffffffffffffffffffffffffff161415611104576040517f08c379a00000000000000000000000000000000000000000000000000000000081526004016110fb90613c83565b60405180910390fd5b61110d816119b6565b50565b60005b8160ff168160ff1610156114695761112b600d611da6565b6000611137600d611dbc565b905061114a6111446115bb565b82611dca565b6019601160009054906101000a900460ff1660ff16600781106111705761116f6138cc565b5b01548111156111b1576001601160008282829054906101000a900460ff166111989190613cd2565b92506101000a81548160ff021916908360ff1602179055505b604051806060016040528060008152602001600067ffffffffffffffff8111156111de576111dd6130f5565b5b60405190808252806020026020018201604052801561120c5781602001602082028036833780820191505090505b508152602001600067ffffffffffffffff81111561122d5761122c6130f5565b5b60405190808252806020026020018201604052801561125b5781602001602082028036833780820191505090505b50815250600e600083815260200190815260200160002060008201518160000155602082015181600101908051906020019061129892919061292b565b5060408201518160020190805190602001906112b5929190612978565b5090505060006112c482611de8565b90506000601160009054906101000a900460ff1660ff1611156113a55760006001601160009054906101000a900460ff1660ff1611611304576000611339565b60196002601160009054906101000a900460ff166113229190613d09565b60ff1660078110611336576113356138cc565b5b01545b600160126001601160009054906101000a900460ff166113599190613d09565b60ff166007811061136d5761136c6138cc565b5b01548461137a9190613d6c565b6113849190613d9d565b61138e9190613d9d565b905061139a8184611e25565b6113a383611e81565b505b60005b600c60009054906101000a900460ff1660ff168160ff161015611453576113ce82611de8565b9150600e60008481526020019081526020016000206002016113ef83612014565b90806001815401808255809150506001900390600052602060002090602091828204019190069091909190916101000a81548160ff0219169083600b81111561143b5761143a612e89565b5b0217905550808061144b90613df3565b9150506113a8565b505050808061146190613df3565b915050611113565b5050565b60007f80ac58cd000000000000000000000000000000000000000000000000000000007bffffffffffffffffffffffffffffffffffffffffffffffffffffffff1916827bffffffffffffffffffffffffffffffffffffffffffffffffffffffff1916148061153857507f5b5e139f000000000000000000000000000000000000000000000000000000007bffffffffffffffffffffffffffffffffffffffffffffffffffffffff1916827bffffffffffffffffffffffffffffffffffffffffffffffffffffffff1916145b80611548575061154782612049565b5b9050919050565b60008073ffffffffffffffffffffffffffffffffffffffff166002600084815260200190815260200160002060009054906101000a900473ffffffffffffffffffffffffffffffffffffffff1673ffffffffffffffffffffffffffffffffffffffff1614159050919050565b600033905090565b816004600083815260200190815260200160002060006101000a81548173ffffffffffffffffffffffffffffffffffffffff021916908373ffffffffffffffffffffffffffffffffffffffff160217905550808273ffffffffffffffffffffffffffffffffffffffff1661163683610bb6565b73ffffffffffffffffffffffffffffffffffffffff167f8c5be1e5ebec7d5bd14f71427d1e84f3dd0314c0f7b2291e5b200ac8c7c3b92560405160405180910390a45050565b60006116878261154f565b6116c6576040517f08c379a00000000000000000000000000000000000000000000000000000000081526004016116bd90613e8f565b60405180910390fd5b60006116d183610bb6565b90508073ffffffffffffffffffffffffffffffffffffffff168473ffffffffffffffffffffffffffffffffffffffff16148061174057508373ffffffffffffffffffffffffffffffffffffffff16611728846105db565b73ffffffffffffffffffffffffffffffffffffffff16145b8061175157506117508185610f84565b5b91505092915050565b8273ffffffffffffffffffffffffffffffffffffffff1661177a82610bb6565b73ffffffffffffffffffffffffffffffffffffffff16146117d0576040517f08c379a00000000000000000000000000000000000000000000000000000000081526004016117c790613f21565b60405180910390fd5b600073ffffffffffffffffffffffffffffffffffffffff168273ffffffffffffffffffffffffffffffffffffffff161415611840576040517f08c379a000000000000000000000000000000000000000000000000000000000815260040161183790613fb3565b60405180910390fd5b61184b8383836120b3565b6118566000826115c3565b6001600360008573ffffffffffffffffffffffffffffffffffffffff1673ffffffffffffffffffffffffffffffffffffffff16815260200190815260200160002060008282546118a69190613fd3565b925050819055506001600360008473ffffffffffffffffffffffffffffffffffffffff1673ffffffffffffffffffffffffffffffffffffffff16815260200190815260200160002060008282546118fd9190613d9d565b92505081905550816002600083815260200190815260200160002060006101000a81548173ffffffffffffffffffffffffffffffffffffffff021916908373ffffffffffffffffffffffffffffffffffffffff160217905550808273ffffffffffffffffffffffffffffffffffffffff168473ffffffffffffffffffffffffffffffffffffffff167fddf252ad1be2c89b69c2b068fc378daa952ba7f163c4a11628f55a4df523b3ef60405160405180910390a4505050565b6000600a60009054906101000a900473ffffffffffffffffffffffffffffffffffffffff16905081600a60006101000a81548173ffffffffffffffffffffffffffffffffffffffff021916908373ffffffffffffffffffffffffffffffffffffffff1602179055508173ffffffffffffffffffffffffffffffffffffffff168173ffffffffffffffffffffffffffffffffffffffff167f8be0079c531659141344cd1fd0a4f28419497f9722a3daafe3b4186f6b6457e060405160405180910390a35050565b8173ffffffffffffffffffffffffffffffffffffffff168373ffffffffffffffffffffffffffffffffffffffff161415611aeb576040517f08c379a0000000000000000000000000000000000000000000000000000000008152600401611ae290614053565b60405180910390fd5b80600560008573ffffffffffffffffffffffffffffffffffffffff1673ffffffffffffffffffffffffffffffffffffffff16815260200190815260200160002060008473ffffffffffffffffffffffffffffffffffffffff1673ffffffffffffffffffffffffffffffffffffffff16815260200190815260200160002060006101000a81548160ff0219169083151502179055508173ffffffffffffffffffffffffffffffffffffffff168373ffffffffffffffffffffffffffffffffffffffff167f17307eab39ab6107e8899845ad3d59bd9653f200f220920489ca2b5937696c3183604051611bdc9190612aff565b60405180910390a3505050565b611bf484848461175a565b611c00848484846121c7565b611c3f576040517f08c379a0000000000000000000000000000000000000000000000000000000008152600401611c36906140e5565b60405180910390fd5b50505050565b60606000821415611c8d576040518060400160405280600181526020017f30000000000000000000000000000000000000000000000000000000000000008152509050611da1565b600082905060005b60008214611cbf578080611ca890614105565b915050600a82611cb8919061414e565b9150611c95565b60008167ffffffffffffffff811115611cdb57611cda6130f5565b5b6040519080825280601f01601f191660200182016040528015611d0d5781602001600182028036833780820191505090505b5090505b60008514611d9a57600182611d269190613fd3565b9150600a85611d359190613d6c565b6030611d419190613d9d565b60f81b818381518110611d5757611d566138cc565b5b60200101907effffffffffffffffffffffffffffffffffffffffffffffffffffffffffffff1916908160001a905350600a85611d93919061414e565b9450611d11565b8093505050505b919050565b6001816000016000828254019250508190555050565b600081600001549050919050565b611de482826040518060200160405280600081525061235e565b5050565b600081611df442611c45565b604051602001611e059291906141a0565b6040516020818303038152906040528051906020012060001c9050919050565b600e600083815260200190815260200160002060010181908060018154018082558091505060019003906000526020600020016000909190919091505581600e6000838152602001908152602001600020600001819055505050565b6000611e94611e8f8361088a565b6109c8565b905060005b81518160ff16101561200f576000600b811115611eb957611eb8612e89565b5b600f6000848460ff1681518110611ed357611ed26138cc565b5b6020026020010151600b811115611eed57611eec612e89565b5b600b811115611eff57611efe612e89565b5b815260200190815260200160002060009054906101000a900460ff16600b811115611f2d57611f2c612e89565b5b14611ffc57600e6000848152602001908152602001600020600201600f6000848460ff1681518110611f6257611f616138cc565b5b6020026020010151600b811115611f7c57611f7b612e89565b5b600b811115611f8e57611f8d612e89565b5b815260200190815260200160002060009054906101000a900460ff1690806001815401808255809150506001900390600052602060002090602091828204019190069091909190916101000a81548160ff0219169083600b811115611ff657611ff5612e89565b5b02179055505b808061200790613df3565b915050611e99565b505050565b60006001600b54836120269190613d6c565b6120309190613d9d565b600b81111561204257612041612e89565b5b9050919050565b60007f01ffc9a7000000000000000000000000000000000000000000000000000000007bffffffffffffffffffffffffffffffffffffffffffffffffffffffff1916827bffffffffffffffffffffffffffffffffffffffffffffffffffffffff1916149050919050565b6120be8383836123b9565b600073ffffffffffffffffffffffffffffffffffffffff168373ffffffffffffffffffffffffffffffffffffffff161415612101576120fc816123be565b612140565b8173ffffffffffffffffffffffffffffffffffffffff168373ffffffffffffffffffffffffffffffffffffffff161461213f5761213e8382612407565b5b5b600073ffffffffffffffffffffffffffffffffffffffff168273ffffffffffffffffffffffffffffffffffffffff1614156121835761217e81612574565b6121c2565b8273ffffffffffffffffffffffffffffffffffffffff168273ffffffffffffffffffffffffffffffffffffffff16146121c1576121c08282612645565b5b5b505050565b60006121e88473ffffffffffffffffffffffffffffffffffffffff166126c4565b15612351578373ffffffffffffffffffffffffffffffffffffffff1663150b7a026122116115bb565b8786866040518563ffffffff1660e01b8152600401612233949392919061421d565b602060405180830381600087803b15801561224d57600080fd5b505af192505050801561227e57506040513d601f19601f8201168201806040525081019061227b919061427e565b60015b612301573d80600081146122ae576040519150601f19603f3d011682016040523d82523d6000602084013e6122b3565b606091505b506000815114156122f9576040517f08c379a00000000000000000000000000000000000000000000000000000000081526004016122f0906140e5565b60405180910390fd5b805181602001fd5b63150b7a0260e01b7bffffffffffffffffffffffffffffffffffffffffffffffffffffffff1916817bffffffffffffffffffffffffffffffffffffffffffffffffffffffff191614915050612356565b600190505b949350505050565b61236883836126d7565b61237560008484846121c7565b6123b4576040517f08c379a00000000000000000000000000000000000000000000000000000000081526004016123ab906140e5565b60405180910390fd5b505050565b505050565b6008805490506009600083815260200190815260200160002081905550600881908060018154018082558091505060019003906000526020600020016000909190919091505550565b6000600161241484610c68565b61241e9190613fd3565b9050600060076000848152602001908152602001600020549050818114612503576000600660008673ffffffffffffffffffffffffffffffffffffffff1673ffffffffffffffffffffffffffffffffffffffff168152602001908152602001600020600084815260200190815260200160002054905080600660008773ffffffffffffffffffffffffffffffffffffffff1673ffffffffffffffffffffffffffffffffffffffff168152602001908152602001600020600084815260200190815260200160002081905550816007600083815260200190815260200160002081905550505b6007600084815260200190815260200160002060009055600660008573ffffffffffffffffffffffffffffffffffffffff1673ffffffffffffffffffffffffffffffffffffffff16815260200190815260200160002060008381526020019081526020016000206000905550505050565b600060016008805490506125889190613fd3565b90506000600960008481526020019081526020016000205490506000600883815481106125b8576125b76138cc565b5b9060005260206000200154905080600883815481106125da576125d96138cc565b5b906000526020600020018190555081600960008381526020019081526020016000208190555060096000858152602001908152602001600020600090556008805480612629576126286142ab565b5b6001900381819060005260206000200160009055905550505050565b600061265083610c68565b905081600660008573ffffffffffffffffffffffffffffffffffffffff1673ffffffffffffffffffffffffffffffffffffffff168152602001908152602001600020600083815260200190815260200160002081905550806007600084815260200190815260200160002081905550505050565b600080823b905060008111915050919050565b600073ffffffffffffffffffffffffffffffffffffffff168273ffffffffffffffffffffffffffffffffffffffff161415612747576040517f08c379a000000000000000000000000000000000000000000000000000000000815260040161273e90614326565b60405180910390fd5b6127508161154f565b15612790576040517f08c379a000000000000000000000000000000000000000000000000000000000815260040161278790614392565b60405180910390fd5b61279c600083836120b3565b6001600360008473ffffffffffffffffffffffffffffffffffffffff1673ffffffffffffffffffffffffffffffffffffffff16815260200190815260200160002060008282546127ec9190613d9d565b92505081905550816002600083815260200190815260200160002060006101000a81548173ffffffffffffffffffffffffffffffffffffffff021916908373ffffffffffffffffffffffffffffffffffffffff160217905550808273ffffffffffffffffffffffffffffffffffffffff16600073ffffffffffffffffffffffffffffffffffffffff167fddf252ad1be2c89b69c2b068fc378daa952ba7f163c4a11628f55a4df523b3ef60405160405180910390a45050565b8280546128b190613378565b90600052602060002090601f0160209004810192826128d3576000855561291a565b82601f106128ec57803560ff191683800117855561291a565b8280016001018555821561291a579182015b828111156129195782358255916020019190600101906128fe565b5b5090506129279190612a2e565b5090565b828054828255906000526020600020908101928215612967579160200282015b8281111561296657825182559160200191906001019061294b565b5b5090506129749190612a2e565b5090565b82805482825590600052602060002090601f01602090048101928215612a1d5791602002820160005b838211156129ee57835183826101000a81548160ff0219169083600b8111156129cd576129cc612e89565b5b021790555092602001926001016020816000010492830192600103026129a1565b8015612a1b5782816101000a81549060ff02191690556001016020816000010492830192600103026129ee565b505b509050612a2a9190612a2e565b5090565b5b80821115612a47576000816000905550600101612a2f565b5090565b6000604051905090565b600080fd5b600080fd5b60007fffffffff0000000000000000000000000000000000000000000000000000000082169050919050565b612a9481612a5f565b8114612a9f57600080fd5b50565b600081359050612ab181612a8b565b92915050565b600060208284031215612acd57612acc612a55565b5b6000612adb84828501612aa2565b91505092915050565b60008115159050919050565b612af981612ae4565b82525050565b6000602082019050612b146000830184612af0565b92915050565b600081519050919050565b600082825260208201905092915050565b60005b83811015612b54578082015181840152602081019050612b39565b83811115612b63576000848401525b50505050565b6000601f19601f8301169050919050565b6000612b8582612b1a565b612b8f8185612b25565b9350612b9f818560208601612b36565b612ba881612b69565b840191505092915050565b60006020820190508181036000830152612bcd8184612b7a565b905092915050565b6000819050919050565b612be881612bd5565b8114612bf357600080fd5b50565b600081359050612c0581612bdf565b92915050565b600060208284031215612c2157612c20612a55565b5b6000612c2f84828501612bf6565b91505092915050565b600073ffffffffffffffffffffffffffffffffffffffff82169050919050565b6000612c6382612c38565b9050919050565b612c7381612c58565b82525050565b6000602082019050612c8e6000830184612c6a565b92915050565b612c9d81612c58565b8114612ca857600080fd5b50565b600081359050612cba81612c94565b92915050565b60008060408385031215612cd757612cd6612a55565b5b6000612ce585828601612cab565b9250506020612cf685828601612bf6565b9150509250929050565b612d0981612bd5565b82525050565b6000602082019050612d246000830184612d00565b92915050565b600080600060608486031215612d4357612d42612a55565b5b6000612d5186828701612cab565b9350506020612d6286828701612cab565b9250506040612d7386828701612bf6565b9150509250925092565b600081519050919050565b600082825260208201905092915050565b6000819050602082019050919050565b612db281612bd5565b82525050565b6000612dc48383612da9565b60208301905092915050565b6000602082019050919050565b6000612de882612d7d565b612df28185612d88565b9350612dfd83612d99565b8060005b83811015612e2e578151612e158882612db8565b9750612e2083612dd0565b925050600181019050612e01565b5085935050505092915050565b60006020820190508181036000830152612e558184612ddd565b905092915050565b600081519050919050565b600082825260208201905092915050565b6000819050602082019050919050565b7f4e487b7100000000000000000000000000000000000000000000000000000000600052602160045260246000fd5b600c8110612ec957612ec8612e89565b5b50565b6000819050612eda82612eb8565b919050565b6000612eea82612ecc565b9050919050565b612efa81612edf565b82525050565b6000612f0c8383612ef1565b60208301905092915050565b6000602082019050919050565b6000612f3082612e5d565b612f3a8185612e68565b9350612f4583612e79565b8060005b83811015612f76578151612f5d8882612f00565b9750612f6883612f18565b925050600181019050612f49565b5085935050505092915050565b60006020820190508181036000830152612f9d8184612f25565b905092915050565b600080fd5b600080fd5b600080fd5b60008083601f840112612fca57612fc9612fa5565b5b8235905067ffffffffffffffff811115612fe757612fe6612faa565b5b60208301915083600182028301111561300357613002612faf565b5b9250929050565b6000806020838503121561302157613020612a55565b5b600083013567ffffffffffffffff81111561303f5761303e612a5a565b5b61304b85828601612fb4565b92509250509250929050565b60006020828403121561306d5761306c612a55565b5b600061307b84828501612cab565b91505092915050565b61308d81612ae4565b811461309857600080fd5b50565b6000813590506130aa81613084565b92915050565b600080604083850312156130c7576130c6612a55565b5b60006130d585828601612cab565b92505060206130e68582860161309b565b9150509250929050565b600080fd5b7f4e487b7100000000000000000000000000000000000000000000000000000000600052604160045260246000fd5b61312d82612b69565b810181811067ffffffffffffffff8211171561314c5761314b6130f5565b5b80604052505050565b600061315f612a4b565b905061316b8282613124565b919050565b600067ffffffffffffffff82111561318b5761318a6130f5565b5b61319482612b69565b9050602081019050919050565b82818337600083830152505050565b60006131c36131be84613170565b613155565b9050828152602081018484840111156131df576131de6130f0565b5b6131ea8482856131a1565b509392505050565b600082601f83011261320757613206612fa5565b5b81356132178482602086016131b0565b91505092915050565b6000806000806080858703121561323a57613239612a55565b5b600061324887828801612cab565b945050602061325987828801612cab565b935050604061326a87828801612bf6565b925050606085013567ffffffffffffffff81111561328b5761328a612a5a565b5b613297878288016131f2565b91505092959194509250565b600080604083850312156132ba576132b9612a55565b5b60006132c885828601612cab565b92505060206132d985828601612cab565b9150509250929050565b600060ff82169050919050565b6132f9816132e3565b811461330457600080fd5b50565b600081359050613316816132f0565b92915050565b60006020828403121561333257613331612a55565b5b600061334084828501613307565b91505092915050565b7f4e487b7100000000000000000000000000000000000000000000000000000000600052602260045260246000fd5b6000600282049050600182168061339057607f821691505b602082108114156133a4576133a3613349565b5b50919050565b7f4552433732313a20617070726f76656420717565727920666f72206e6f6e657860008201527f697374656e7420746f6b656e0000000000000000000000000000000000000000602082015250565b6000613406602c83612b25565b9150613411826133aa565b604082019050919050565b60006020820190508181036000830152613435816133f9565b9050919050565b7f4552433732313a20617070726f76616c20746f2063757272656e74206f776e6560008201527f7200000000000000000000000000000000000000000000000000000000000000602082015250565b6000613498602183612b25565b91506134a38261343c565b604082019050919050565b600060208201905081810360008301526134c78161348b565b9050919050565b7f4552433732313a20617070726f76652063616c6c6572206973206e6f74206f7760008201527f6e6572206e6f7220617070726f76656420666f7220616c6c0000000000000000602082015250565b600061352a603883612b25565b9150613535826134ce565b604082019050919050565b600060208201905081810360008301526135598161351d565b9050919050565b7f4552433732313a207472616e736665722063616c6c6572206973206e6f74206f60008201527f776e6572206e6f7220617070726f766564000000000000000000000000000000602082015250565b60006135bc603183612b25565b91506135c782613560565b604082019050919050565b600060208201905081810360008301526135eb816135af565b9050919050565b7f455243373231456e756d657261626c653a206f776e657220696e646578206f7560008201527f74206f6620626f756e6473000000000000000000000000000000000000000000602082015250565b600061364e602b83612b25565b9150613659826135f2565b604082019050919050565b6000602082019050818103600083015261367d81613641565b9050919050565b7f676574506172656e742063616c6c656420666f72206e6f6e6578697374656e7460008201527f20746f6b656e0000000000000000000000000000000000000000000000000000602082015250565b60006136e0602683612b25565b91506136eb82613684565b604082019050919050565b6000602082019050818103600083015261370f816136d3565b9050919050565b7f6765744368696c6472656e2063616c6c656420666f72206e6f6e65786973746560008201527f6e7420746f6b656e000000000000000000000000000000000000000000000000602082015250565b6000613772602883612b25565b915061377d82613716565b604082019050919050565b600060208201905081810360008301526137a181613765565b9050919050565b7f67657443726573744c6f72652063616c6c656420666f72206e6f6e657869737460008201527f656e7420746f6b656e0000000000000000000000000000000000000000000000602082015250565b6000613804602983612b25565b915061380f826137a8565b604082019050919050565b60006020820190508181036000830152613833816137f7565b9050919050565b7f455243373231456e756d657261626c653a20676c6f62616c20696e646578206f60008201527f7574206f6620626f756e64730000000000000000000000000000000000000000602082015250565b6000613896602c83612b25565b91506138a18261383a565b604082019050919050565b600060208201905081810360008301526138c581613889565b9050919050565b7f4e487b7100000000000000000000000000000000000000000000000000000000600052603260045260246000fd5b7f4f776e61626c653a2063616c6c6572206973206e6f7420746865206f776e6572600082015250565b6000613931602083612b25565b915061393c826138fb565b602082019050919050565b6000602082019050818103600083015261396081613924565b9050919050565b7f4552433732313a206f776e657220717565727920666f72206e6f6e657869737460008201527f656e7420746f6b656e0000000000000000000000000000000000000000000000602082015250565b60006139c3602983612b25565b91506139ce82613967565b604082019050919050565b600060208201905081810360008301526139f2816139b6565b9050919050565b7f4552433732313a2062616c616e636520717565727920666f7220746865207a6560008201527f726f206164647265737300000000000000000000000000000000000000000000602082015250565b6000613a55602a83612b25565b9150613a60826139f9565b604082019050919050565b60006020820190508181036000830152613a8481613a48565b9050919050565b7f4552433732314d657461646174613a2055524920717565727920666f72206e6f60008201527f6e6578697374656e7420746f6b656e0000000000000000000000000000000000602082015250565b6000613ae7602f83612b25565b9150613af282613a8b565b604082019050919050565b60006020820190508181036000830152613b1681613ada565b9050919050565b600081905092915050565b60008190508160005260206000209050919050565b60008154613b4a81613378565b613b548186613b1d565b94506001821660008114613b6f5760018114613b8057613bb3565b60ff19831686528186019350613bb3565b613b8985613b28565b60005b83811015613bab57815481890152600182019150602081019050613b8c565b838801955050505b50505092915050565b6000613bc782612b1a565b613bd18185613b1d565b9350613be1818560208601612b36565b80840191505092915050565b6000613bf98285613b3d565b9150613c058284613bbc565b91508190509392505050565b7f4f776e61626c653a206e6577206f776e657220697320746865207a65726f206160008201527f6464726573730000000000000000000000000000000000000000000000000000602082015250565b6000613c6d602683612b25565b9150613c7882613c11565b604082019050919050565b60006020820190508181036000830152613c9c81613c60565b9050919050565b7f4e487b7100000000000000000000000000000000000000000000000000000000600052601160045260246000fd5b6000613cdd826132e3565b9150613ce8836132e3565b92508260ff03821115613cfe57613cfd613ca3565b5b828201905092915050565b6000613d14826132e3565b9150613d1f836132e3565b925082821015613d3257613d31613ca3565b5b828203905092915050565b7f4e487b7100000000000000000000000000000000000000000000000000000000600052601260045260246000fd5b6000613d7782612bd5565b9150613d8283612bd5565b925082613d9257613d91613d3d565b5b828206905092915050565b6000613da882612bd5565b9150613db383612bd5565b9250827fffffffffffffffffffffffffffffffffffffffffffffffffffffffffffffffff03821115613de857613de7613ca3565b5b828201905092915050565b6000613dfe826132e3565b915060ff821415613e1257613e11613ca3565b5b600182019050919050565b7f4552433732313a206f70657261746f7220717565727920666f72206e6f6e657860008201527f697374656e7420746f6b656e0000000000000000000000000000000000000000602082015250565b6000613e79602c83612b25565b9150613e8482613e1d565b604082019050919050565b60006020820190508181036000830152613ea881613e6c565b9050919050565b7f4552433732313a207472616e73666572206f6620746f6b656e2074686174206960008201527f73206e6f74206f776e0000000000000000000000000000000000000000000000602082015250565b6000613f0b602983612b25565b9150613f1682613eaf565b604082019050919050565b60006020820190508181036000830152613f3a81613efe565b9050919050565b7f4552433732313a207472616e7366657220746f20746865207a65726f2061646460008201527f7265737300000000000000000000000000000000000000000000000000000000602082015250565b6000613f9d602483612b25565b9150613fa882613f41565b604082019050919050565b60006020820190508181036000830152613fcc81613f90565b9050919050565b6000613fde82612bd5565b9150613fe983612bd5565b925082821015613ffc57613ffb613ca3565b5b828203905092915050565b7f4552433732313a20617070726f766520746f2063616c6c657200000000000000600082015250565b600061403d601983612b25565b915061404882614007565b602082019050919050565b6000602082019050818103600083015261406c81614030565b9050919050565b7f4552433732313a207472616e7366657220746f206e6f6e20455243373231526560008201527f63656976657220696d706c656d656e7465720000000000000000000000000000602082015250565b60006140cf603283612b25565b91506140da82614073565b604082019050919050565b600060208201905081810360008301526140fe816140c2565b9050919050565b600061411082612bd5565b91507fffffffffffffffffffffffffffffffffffffffffffffffffffffffffffffffff82141561414357614142613ca3565b5b600182019050919050565b600061415982612bd5565b915061416483612bd5565b92508261417457614173613d3d565b5b828204905092915050565b6000819050919050565b61419a61419582612bd5565b61417f565b82525050565b60006141ac8285614189565b6020820191506141bc8284613bbc565b91508190509392505050565b600081519050919050565b600082825260208201905092915050565b60006141ef826141c8565b6141f981856141d3565b9350614209818560208601612b36565b61421281612b69565b840191505092915050565b60006080820190506142326000830187612c6a565b61423f6020830186612c6a565b61424c6040830185612d00565b818103606083015261425e81846141e4565b905095945050505050565b60008151905061427881612a8b565b92915050565b60006020828403121561429457614293612a55565b5b60006142a284828501614269565b91505092915050565b7f4e487b7100000000000000000000000000000000000000000000000000000000600052603160045260246000fd5b7f4552433732313a206d696e7420746f20746865207a65726f2061646472657373600082015250565b6000614310602083612b25565b915061431b826142da565b602082019050919050565b6000602082019050818103600083015261433f81614303565b9050919050565b7f4552433732313a20746f6b656e20616c7265616479206d696e74656400000000600082015250565b600061437c601c83612b25565b915061438782614346565b602082019050919050565b600060208201905081810360008301526143ab8161436f565b905091905056fea264697066735822122098f4929be51782c1a4cfba48e8921e2eae3f2495fb0891a69359f49de2a5f37364736f6c63430008080033",
  "linkReferences": {},
  "deployedLinkReferences": {}
}